{
  "contractName": "BasicEscrow",
  "abi": [
    {
      "constant": true,
      "inputs": [],
      "name": "seller",
      "outputs": [
        {
          "name": "",
          "type": "address"
        }
      ],
      "payable": false,
      "stateMutability": "view",
      "type": "function"
    },
    {
      "constant": true,
      "inputs": [],
      "name": "buyerVoted",
      "outputs": [
        {
          "name": "",
          "type": "bool"
        }
      ],
      "payable": false,
      "stateMutability": "view",
      "type": "function"
    },
    {
      "constant": true,
      "inputs": [],
      "name": "sellerVoted",
      "outputs": [
        {
          "name": "",
          "type": "bool"
        }
      ],
      "payable": false,
      "stateMutability": "view",
      "type": "function"
    },
    {
      "constant": true,
      "inputs": [],
      "name": "buyerOk",
      "outputs": [
        {
          "name": "",
          "type": "bool"
        }
      ],
      "payable": false,
      "stateMutability": "view",
      "type": "function"
    },
    {
      "constant": true,
      "inputs": [],
      "name": "buyer",
      "outputs": [
        {
          "name": "",
          "type": "address"
        }
      ],
      "payable": false,
      "stateMutability": "view",
      "type": "function"
    },
    {
      "constant": true,
      "inputs": [],
      "name": "offerAccepted",
      "outputs": [
        {
          "name": "",
          "type": "bool"
        }
      ],
      "payable": false,
      "stateMutability": "view",
      "type": "function"
    },
    {
      "constant": true,
      "inputs": [],
      "name": "balance",
      "outputs": [
        {
          "name": "",
          "type": "uint256"
        }
      ],
      "payable": false,
      "stateMutability": "view",
      "type": "function"
    },
    {
      "constant": true,
      "inputs": [],
      "name": "sellerOk",
      "outputs": [
        {
          "name": "",
          "type": "bool"
        }
      ],
      "payable": false,
      "stateMutability": "view",
      "type": "function"
    },
    {
      "inputs": [
        {
          "name": "seller_address",
          "type": "address"
        }
      ],
      "payable": true,
      "stateMutability": "payable",
      "type": "constructor"
    },
    {
      "constant": false,
      "inputs": [],
      "name": "accept",
      "outputs": [],
      "payable": false,
      "stateMutability": "nonpayable",
      "type": "function"
    },
    {
      "constant": false,
      "inputs": [],
      "name": "acceptOffer",
      "outputs": [],
      "payable": false,
      "stateMutability": "nonpayable",
      "type": "function"
    },
    {
      "constant": false,
      "inputs": [],
      "name": "declineOffer",
      "outputs": [],
      "payable": false,
      "stateMutability": "nonpayable",
      "type": "function"
    },
    {
      "constant": false,
      "inputs": [],
      "name": "deposit",
      "outputs": [],
      "payable": true,
      "stateMutability": "payable",
      "type": "function"
    },
    {
      "constant": false,
      "inputs": [],
      "name": "cancel",
      "outputs": [],
      "payable": false,
      "stateMutability": "nonpayable",
      "type": "function"
    },
    {
      "constant": false,
      "inputs": [
        {
          "name": "amount",
          "type": "uint256"
        }
      ],
      "name": "refund",
      "outputs": [],
      "payable": false,
      "stateMutability": "nonpayable",
      "type": "function"
    },
    {
      "constant": false,
      "inputs": [],
      "name": "buyerRefund",
      "outputs": [],
      "payable": false,
      "stateMutability": "nonpayable",
      "type": "function"
    },
    {
      "constant": false,
      "inputs": [],
      "name": "kill",
      "outputs": [],
      "payable": false,
      "stateMutability": "nonpayable",
      "type": "function"
    }
  ],
  "bytecode": "0x6080604052604051602080610df28339810180604052810190808051906020019092919050505033600160006101000a81548173ffffffffffffffffffffffffffffffffffffffff021916908373ffffffffffffffffffffffffffffffffffffffff16021790555080600260006101000a81548173ffffffffffffffffffffffffffffffffffffffff021916908373ffffffffffffffffffffffffffffffffffffffff1602179055507396b78740dc0c15b79e3bb0037a2c90576148ecac600360006101000a81548173ffffffffffffffffffffffffffffffffffffffff021916908373ffffffffffffffffffffffffffffffffffffffff1602179055503460008082825401925050819055504260048190555050610ccf806101236000396000f3006080604052600436106100e6576000357c0100000000000000000000000000000000000000000000000000000000900463ffffffff16806308551a53146100eb5780630b22555c14610142578063278ecde1146101715780632852b71c1461019e5780632b99bc25146101b557806334f25613146101cc5780633502e066146101fb57806341c0e1b51461021257806353496a75146102295780637150d8ae14610258578063967deb15146102af578063b69ef8a8146102de578063c5b0e6fb14610309578063d0e30db014610338578063ea8a1af014610342578063eb62df6114610359575b600080fd5b3480156100f757600080fd5b50610100610370565b604051808273ffffffffffffffffffffffffffffffffffffffff1673ffffffffffffffffffffffffffffffffffffffff16815260200191505060405180910390f35b34801561014e57600080fd5b50610157610396565b604051808215151515815260200191505060405180910390f35b34801561017d57600080fd5b5061019c600480360381019080803590602001909291905050506103a9565b005b3480156101aa57600080fd5b506101b36104e3565b005b3480156101c157600080fd5b506101ca610702565b005b3480156101d857600080fd5b506101e1610796565b604051808215151515815260200191505060405180910390f35b34801561020757600080fd5b506102106107a9565b005b34801561021e57600080fd5b50610227610856565b005b34801561023557600080fd5b5061023e610919565b604051808215151515815260200191505060405180910390f35b34801561026457600080fd5b5061026d61092c565b604051808273ffffffffffffffffffffffffffffffffffffffff1673ffffffffffffffffffffffffffffffffffffffff16815260200191505060405180910390f35b3480156102bb57600080fd5b506102c4610952565b604051808215151515815260200191505060405180910390f35b3480156102ea57600080fd5b506102f3610965565b6040518082815260200191505060405180910390f35b34801561031557600080fd5b5061031e61096b565b604051808215151515815260200191505060405180910390f35b61034061097e565b005b34801561034e57600080fd5b506103576109e6565b005b34801561036557600080fd5b5061036e610bb9565b005b600260009054906101000a900473ffffffffffffffffffffffffffffffffffffffff1681565b600560009054906101000a900460ff1681565b600360009054906101000a900473ffffffffffffffffffffffffffffffffffffffff1673ffffffffffffffffffffffffffffffffffffffff163373ffffffffffffffffffffffffffffffffffffffff1614806104525750600260009054906101000a900473ffffffffffffffffffffffffffffffffffffffff1673ffffffffffffffffffffffffffffffffffffffff163373ffffffffffffffffffffffffffffffffffffffff16145b151561045a57fe5b600054811115151561046857fe5b600160009054906101000a900473ffffffffffffffffffffffffffffffffffffffff1673ffffffffffffffffffffffffffffffffffffffff166108fc829081150290604051600060405180830381858888f193505050501580156104d0573d6000803e3d6000fd5b5080600080828254039250508190555050565b600560029054906101000a900460ff1615156104fb57fe5b600160009054906101000a900473ffffffffffffffffffffffffffffffffffffffff1673ffffffffffffffffffffffffffffffffffffffff163373ffffffffffffffffffffffffffffffffffffffff16141561058c576001600560036101000a81548160ff0219169083151502179055506001600560006101000a81548160ff02191690831515021790555061061a565b600260009054906101000a900473ffffffffffffffffffffffffffffffffffffffff1673ffffffffffffffffffffffffffffffffffffffff163373ffffffffffffffffffffffffffffffffffffffff161415610619576001600560046101000a81548160ff0219169083151502179055506001600560016101000a81548160ff0219169083151502179055505b5b600560039054906101000a900460ff1680156106425750600560049054906101000a900460ff165b801561065a5750600560009054906101000a900460ff165b80156106725750600560019054906101000a900460ff165b156106845761067f610c2f565b610700565b600560039054906101000a900460ff1680156106ad5750600560049054906101000a900460ff16155b80156106bf575062278d006004540142115b156106ff57600160009054906101000a900473ffffffffffffffffffffffffffffffffffffffff1673ffffffffffffffffffffffffffffffffffffffff16ff5b5b565b600260009054906101000a900473ffffffffffffffffffffffffffffffffffffffff1673ffffffffffffffffffffffffffffffffffffffff163373ffffffffffffffffffffffffffffffffffffffff1614151561075b57fe5b600160009054906101000a900473ffffffffffffffffffffffffffffffffffffffff1673ffffffffffffffffffffffffffffffffffffffff16ff5b600560019054906101000a900460ff1681565b600160009054906101000a900473ffffffffffffffffffffffffffffffffffffffff1673ffffffffffffffffffffffffffffffffffffffff163373ffffffffffffffffffffffffffffffffffffffff1614151561080257fe5b600560029054906101000a900460ff1615151561081b57fe5b600160009054906101000a900473ffffffffffffffffffffffffffffffffffffffff1673ffffffffffffffffffffffffffffffffffffffff16ff5b600560019054906101000a900460ff16801561087e5750600560009054906101000a900460ff165b151561088657fe5b600360009054906101000a900473ffffffffffffffffffffffffffffffffffffffff1673ffffffffffffffffffffffffffffffffffffffff163373ffffffffffffffffffffffffffffffffffffffff16141561091757600160009054906101000a900473ffffffffffffffffffffffffffffffffffffffff1673ffffffffffffffffffffffffffffffffffffffff16ff5b565b600560039054906101000a900460ff1681565b600160009054906101000a900473ffffffffffffffffffffffffffffffffffffffff1681565b600560029054906101000a900460ff1681565b60005481565b600560049054906101000a900460ff1681565b600160009054906101000a900473ffffffffffffffffffffffffffffffffffffffff1673ffffffffffffffffffffffffffffffffffffffff163373ffffffffffffffffffffffffffffffffffffffff1614156109e4573460008082825401925050819055505b565b600560029054906101000a900460ff1615156109fe57fe5b600160009054906101000a900473ffffffffffffffffffffffffffffffffffffffff1673ffffffffffffffffffffffffffffffffffffffff163373ffffffffffffffffffffffffffffffffffffffff161415610a8f576000600560036101000a81548160ff0219169083151502179055506001600560006101000a81548160ff021916908315150217905550610b1d565b600260009054906101000a900473ffffffffffffffffffffffffffffffffffffffff1673ffffffffffffffffffffffffffffffffffffffff163373ffffffffffffffffffffffffffffffffffffffff161415610b1c576000600560046101000a81548160ff0219169083151502179055506001600560016101000a81548160ff0219169083151502179055505b5b600560039054906101000a900460ff16158015610b475750600560049054906101000a900460ff16155b8015610b5f5750600560009054906101000a900460ff165b8015610b775750600560019054906101000a900460ff165b15610bb757600160009054906101000a900473ffffffffffffffffffffffffffffffffffffffff1673ffffffffffffffffffffffffffffffffffffffff16ff5b565b600260009054906101000a900473ffffffffffffffffffffffffffffffffffffffff1673ffffffffffffffffffffffffffffffffffffffff163373ffffffffffffffffffffffffffffffffffffffff16141515610c1257fe5b6001600560026101000a81548160ff021916908315150217905550565b600260009054906101000a900473ffffffffffffffffffffffffffffffffffffffff1673ffffffffffffffffffffffffffffffffffffffff166108fc6000549081150290604051600060405180830381858888f19350505050158015610c99573d6000803e3d6000fd5b50600080819055505600a165627a7a72305820477c9205107bdc0e90a56b651acbbf7feefcec5792ef436aedc6e9928c7b26840029",
  "source": "pragma solidity ^ 0.4 .11;\ncontract BasicEscrow {\n    uint public balance;\n    address public buyer;\n    address public seller;\n    address private escrow;\n    uint private start;\n    bool public buyerVoted;\n    bool public sellerVoted;\n    bool public offerAccepted;\n    bool public buyerOk;\n    bool public sellerOk;\n    \n\n    // create the smart contract and deposit the funds into escrow\n    constructor(address seller_address) public payable {\n        // this is the constructor function that runs ONCE upon initialization\n        buyer = msg.sender;\n        seller = seller_address;\n        escrow = 0x96b78740DC0c15B79E3bb0037A2c90576148ECAC;\n        balance += msg.value;\n        start = now; //now is an alias for block.timestamp, not really \"now\"\n    }\n\n    // user accepts the transaction\n    function accept() public {\n        assert(offerAccepted);\n        if (msg.sender == buyer) {\n            buyerOk = true;\n            buyerVoted = true;\n        } else if (msg.sender == seller) {\n            sellerOk = true;\n            sellerVoted = true;\n        }\n        if (buyerOk && sellerOk && buyerVoted && sellerVoted) {\n            payBalance();\n        } else if (buyerOk && !sellerOk && now > start + 30 days) {\n            // Freeze 30 days before release to buyer. The customer has to remember to call this method after freeze period.\n            selfdestruct(buyer);\n        }\n    }\n\n    function acceptOffer() public {\n        assert(msg.sender == seller);\n        offerAccepted = true;\n    }\n\n    function declineOffer() public {\n        assert(msg.sender == seller);\n        selfdestruct(buyer);\n    }\n\n    // transfer funds from smart contract to seller\n    function payBalance() private {\n        seller.transfer(balance);\n        balance = 0;\n    }\n\n    // buyer may deposit additional funds into the contract if pleased\n    function deposit() public payable {\n        if (msg.sender == buyer) {\n            balance += msg.value;\n        }\n    }\n\n    // user rejects the transaction\n    function cancel() public {\n        assert(offerAccepted);\n        if (msg.sender == buyer) {\n            buyerOk = false;\n            buyerVoted = true;\n        } else if (msg.sender == seller) {\n            sellerOk = false;\n            sellerVoted = true;\n        }\n        // if both buyer and seller would like to cancel, money is returned to buyer \n        if (!buyerOk && !sellerOk && buyerVoted && sellerVoted) {\n            selfdestruct(buyer);\n        }\n    }\n    \n    // allows escrow manager and seller to do full or partial refunds\n    function refund(uint amount) public {\n        assert(msg.sender == escrow || msg.sender == seller);\n        assert(amount <= balance);\n        buyer.transfer(amount);\n        balance -= amount;\n    }\n    \n    // allows the buyer to reclaim funds and destroy the contract if the seller has not yet accepted the transaction\n    function buyerRefund() public {\n        assert(msg.sender == buyer);\n        assert(!offerAccepted);\n        selfdestruct(buyer);\n    }\n\n    // removes the contract from the blockchain and returns all deposited funds to the buyers\n    // can only be executed after both parties voted but the transaction was not fulfilled\n    function kill() public {\n        assert(sellerVoted && buyerVoted);\n        if (msg.sender == escrow) {\n            selfdestruct(buyer);\n        }\n    }\n}",
  "sourcePath": "/home/vinsonly/School/CMPT470/finalproject/client/src/eth/contracts/BasicEscrow.sol",
  "compiler": {
    "name": "solc",
    "version": "0.4.24+commit.e67f0147.Emscripten.clang"
  },
  "schemaVersion": "2.0.1",
  "updatedAt": "2018-08-05T19:42:59.009Z"
}