{
  "contractName": "BasicEscrow",
  "abi": [
    {
      "constant": true,
      "inputs": [],
      "name": "seller",
      "outputs": [
        {
          "name": "",
          "type": "address"
        }
      ],
      "payable": false,
      "stateMutability": "view",
      "type": "function"
    },
    {
      "constant": true,
      "inputs": [],
      "name": "buyerVoted",
      "outputs": [
        {
          "name": "",
          "type": "bool"
        }
      ],
      "payable": false,
      "stateMutability": "view",
      "type": "function"
    },
    {
      "constant": true,
      "inputs": [],
      "name": "sellerVoted",
      "outputs": [
        {
          "name": "",
          "type": "bool"
        }
      ],
      "payable": false,
      "stateMutability": "view",
      "type": "function"
    },
    {
      "constant": true,
      "inputs": [],
      "name": "buyerOk",
      "outputs": [
        {
          "name": "",
          "type": "bool"
        }
      ],
      "payable": false,
      "stateMutability": "view",
      "type": "function"
    },
    {
      "constant": true,
      "inputs": [],
      "name": "buyer",
      "outputs": [
        {
          "name": "",
          "type": "address"
        }
      ],
      "payable": false,
      "stateMutability": "view",
      "type": "function"
    },
    {
      "constant": true,
      "inputs": [],
      "name": "offerAccepted",
      "outputs": [
        {
          "name": "",
          "type": "bool"
        }
      ],
      "payable": false,
      "stateMutability": "view",
      "type": "function"
    },
    {
      "constant": true,
      "inputs": [],
      "name": "balance",
      "outputs": [
        {
          "name": "",
          "type": "uint256"
        }
      ],
      "payable": false,
      "stateMutability": "view",
      "type": "function"
    },
    {
      "constant": true,
      "inputs": [],
      "name": "sellerOk",
      "outputs": [
        {
          "name": "",
          "type": "bool"
        }
      ],
      "payable": false,
      "stateMutability": "view",
      "type": "function"
    },
    {
      "inputs": [
        {
          "name": "seller_address",
          "type": "address"
        }
      ],
      "payable": true,
      "stateMutability": "payable",
      "type": "constructor"
    },
    {
      "constant": false,
      "inputs": [],
      "name": "accept",
      "outputs": [],
      "payable": false,
      "stateMutability": "nonpayable",
      "type": "function"
    },
    {
      "constant": false,
      "inputs": [],
      "name": "deposit",
      "outputs": [],
      "payable": true,
      "stateMutability": "payable",
      "type": "function"
    },
    {
      "constant": false,
      "inputs": [],
      "name": "cancel",
      "outputs": [],
      "payable": false,
      "stateMutability": "nonpayable",
      "type": "function"
    },
    {
      "constant": false,
      "inputs": [
        {
          "name": "amount",
          "type": "uint256"
        }
      ],
      "name": "refund",
      "outputs": [],
      "payable": false,
      "stateMutability": "nonpayable",
      "type": "function"
    },
    {
      "constant": false,
      "inputs": [],
      "name": "buyerRefund",
      "outputs": [],
      "payable": false,
      "stateMutability": "nonpayable",
      "type": "function"
    },
    {
      "constant": false,
      "inputs": [],
      "name": "kill",
      "outputs": [],
      "payable": false,
      "stateMutability": "nonpayable",
      "type": "function"
    }
  ],
  "bytecode": "0x6080604052604051602080610ca48339810180604052810190808051906020019092919050505033600160006101000a81548173ffffffffffffffffffffffffffffffffffffffff021916908373ffffffffffffffffffffffffffffffffffffffff16021790555080600260006101000a81548173ffffffffffffffffffffffffffffffffffffffff021916908373ffffffffffffffffffffffffffffffffffffffff1602179055507396b78740dc0c15b79e3bb0037a2c90576148ecac600360006101000a81548173ffffffffffffffffffffffffffffffffffffffff021916908373ffffffffffffffffffffffffffffffffffffffff1602179055503460008082825401925050819055504260048190555050610b81806101236000396000f3006080604052600436106100d0576000357c0100000000000000000000000000000000000000000000000000000000900463ffffffff16806308551a53146100d55780630b22555c1461012c578063278ecde11461015b5780632852b71c1461018857806334f256131461019f5780633502e066146101ce57806341c0e1b5146101e557806353496a75146101fc5780637150d8ae1461022b578063967deb1514610282578063b69ef8a8146102b1578063c5b0e6fb146102dc578063d0e30db01461030b578063ea8a1af014610315575b600080fd5b3480156100e157600080fd5b506100ea61032c565b604051808273ffffffffffffffffffffffffffffffffffffffff1673ffffffffffffffffffffffffffffffffffffffff16815260200191505060405180910390f35b34801561013857600080fd5b50610141610352565b604051808215151515815260200191505060405180910390f35b34801561016757600080fd5b5061018660048036038101908080359060200190929190505050610365565b005b34801561019457600080fd5b5061019d61049f565b005b3480156101ab57600080fd5b506101b46106be565b604051808215151515815260200191505060405180910390f35b3480156101da57600080fd5b506101e36106d1565b005b3480156101f157600080fd5b506101fa61077e565b005b34801561020857600080fd5b50610211610841565b604051808215151515815260200191505060405180910390f35b34801561023757600080fd5b50610240610854565b604051808273ffffffffffffffffffffffffffffffffffffffff1673ffffffffffffffffffffffffffffffffffffffff16815260200191505060405180910390f35b34801561028e57600080fd5b5061029761087a565b604051808215151515815260200191505060405180910390f35b3480156102bd57600080fd5b506102c661088d565b6040518082815260200191505060405180910390f35b3480156102e857600080fd5b506102f1610893565b604051808215151515815260200191505060405180910390f35b6103136108a6565b005b34801561032157600080fd5b5061032a61090e565b005b600260009054906101000a900473ffffffffffffffffffffffffffffffffffffffff1681565b600560009054906101000a900460ff1681565b600360009054906101000a900473ffffffffffffffffffffffffffffffffffffffff1673ffffffffffffffffffffffffffffffffffffffff163373ffffffffffffffffffffffffffffffffffffffff16148061040e5750600260009054906101000a900473ffffffffffffffffffffffffffffffffffffffff1673ffffffffffffffffffffffffffffffffffffffff163373ffffffffffffffffffffffffffffffffffffffff16145b151561041657fe5b600054811115151561042457fe5b600160009054906101000a900473ffffffffffffffffffffffffffffffffffffffff1673ffffffffffffffffffffffffffffffffffffffff166108fc829081150290604051600060405180830381858888f1935050505015801561048c573d6000803e3d6000fd5b5080600080828254039250508190555050565b600560029054906101000a900460ff1615156104b757fe5b600160009054906101000a900473ffffffffffffffffffffffffffffffffffffffff1673ffffffffffffffffffffffffffffffffffffffff163373ffffffffffffffffffffffffffffffffffffffff161415610548576001600560036101000a81548160ff0219169083151502179055506001600560006101000a81548160ff0219169083151502179055506105d6565b600260009054906101000a900473ffffffffffffffffffffffffffffffffffffffff1673ffffffffffffffffffffffffffffffffffffffff163373ffffffffffffffffffffffffffffffffffffffff1614156105d5576001600560046101000a81548160ff0219169083151502179055506001600560016101000a81548160ff0219169083151502179055505b5b600560039054906101000a900460ff1680156105fe5750600560049054906101000a900460ff165b80156106165750600560009054906101000a900460ff165b801561062e5750600560019054906101000a900460ff165b156106405761063b610ae1565b6106bc565b600560039054906101000a900460ff1680156106695750600560049054906101000a900460ff16155b801561067b575062278d006004540142115b156106bb57600160009054906101000a900473ffffffffffffffffffffffffffffffffffffffff1673ffffffffffffffffffffffffffffffffffffffff16ff5b5b565b600560019054906101000a900460ff1681565b600160009054906101000a900473ffffffffffffffffffffffffffffffffffffffff1673ffffffffffffffffffffffffffffffffffffffff163373ffffffffffffffffffffffffffffffffffffffff1614151561072a57fe5b600560029054906101000a900460ff1615151561074357fe5b600160009054906101000a900473ffffffffffffffffffffffffffffffffffffffff1673ffffffffffffffffffffffffffffffffffffffff16ff5b600560019054906101000a900460ff1680156107a65750600560009054906101000a900460ff165b15156107ae57fe5b600360009054906101000a900473ffffffffffffffffffffffffffffffffffffffff1673ffffffffffffffffffffffffffffffffffffffff163373ffffffffffffffffffffffffffffffffffffffff16141561083f57600160009054906101000a900473ffffffffffffffffffffffffffffffffffffffff1673ffffffffffffffffffffffffffffffffffffffff16ff5b565b600560039054906101000a900460ff1681565b600160009054906101000a900473ffffffffffffffffffffffffffffffffffffffff1681565b600560029054906101000a900460ff1681565b60005481565b600560049054906101000a900460ff1681565b600160009054906101000a900473ffffffffffffffffffffffffffffffffffffffff1673ffffffffffffffffffffffffffffffffffffffff163373ffffffffffffffffffffffffffffffffffffffff16141561090c573460008082825401925050819055505b565b600560029054906101000a900460ff16151561092657fe5b600160009054906101000a900473ffffffffffffffffffffffffffffffffffffffff1673ffffffffffffffffffffffffffffffffffffffff163373ffffffffffffffffffffffffffffffffffffffff1614156109b7576000600560036101000a81548160ff0219169083151502179055506001600560006101000a81548160ff021916908315150217905550610a45565b600260009054906101000a900473ffffffffffffffffffffffffffffffffffffffff1673ffffffffffffffffffffffffffffffffffffffff163373ffffffffffffffffffffffffffffffffffffffff161415610a44576000600560046101000a81548160ff0219169083151502179055506001600560016101000a81548160ff0219169083151502179055505b5b600560039054906101000a900460ff16158015610a6f5750600560049054906101000a900460ff16155b8015610a875750600560009054906101000a900460ff165b8015610a9f5750600560019054906101000a900460ff165b15610adf57600160009054906101000a900473ffffffffffffffffffffffffffffffffffffffff1673ffffffffffffffffffffffffffffffffffffffff16ff5b565b600260009054906101000a900473ffffffffffffffffffffffffffffffffffffffff1673ffffffffffffffffffffffffffffffffffffffff166108fc6000549081150290604051600060405180830381858888f19350505050158015610b4b573d6000803e3d6000fd5b50600080819055505600a165627a7a723058201ad9f86288a60965ef1082cdbbce2b6f824d797c9766910859cbc7ba3092309d0029",
  "source": "pragma solidity ^ 0.4 .11;\ncontract BasicEscrow {\n    uint public balance;\n    address public buyer;\n    address public seller;\n    address private escrow;\n    uint private start;\n    bool public buyerVoted;\n    bool public sellerVoted;\n    bool public offerAccepted;\n    bool public buyerOk;\n    bool public sellerOk;\n    \n\n    // create the smart contract and deposit the funds into escrow\n    constructor(address seller_address) public payable {\n        // this is the constructor function that runs ONCE upon initialization\n        buyer = msg.sender;\n        seller = seller_address;\n        escrow = 0x96b78740DC0c15B79E3bb0037A2c90576148ECAC;\n        balance += msg.value;\n        start = now; //now is an alias for block.timestamp, not really \"now\"\n    }\n\n    // user accepts the transaction\n    function accept() public {\n        assert(offerAccepted);\n        if (msg.sender == buyer) {\n            buyerOk = true;\n            buyerVoted = true;\n        } else if (msg.sender == seller) {\n            sellerOk = true;\n            sellerVoted = true;\n        }\n        if (buyerOk && sellerOk && buyerVoted && sellerVoted) {\n            payBalance();\n        } else if (buyerOk && !sellerOk && now > start + 30 days) {\n            // Freeze 30 days before release to buyer. The customer has to remember to call this method after freeze period.\n            selfdestruct(buyer);\n        }\n    }\n\n    // transfer funds from smart contract to seller\n    function payBalance() private {\n        seller.transfer(balance);\n        balance = 0;\n    }\n\n    // buyer may deposit additional funds into the contract if pleased\n    function deposit() public payable {\n        if (msg.sender == buyer) {\n            balance += msg.value;\n        }\n    }\n\n    // user rejects the transaction\n    function cancel() public {\n        assert(offerAccepted);\n        if (msg.sender == buyer) {\n            buyerOk = false;\n            buyerVoted = true;\n        } else if (msg.sender == seller) {\n            sellerOk = false;\n            sellerVoted = true;\n        }\n        // if both buyer and seller would like to cancel, money is returned to buyer \n        if (!buyerOk && !sellerOk && buyerVoted && sellerVoted) {\n            selfdestruct(buyer);\n        }\n    }\n    \n    // allows escrow manager and seller to do full or partial refunds\n    function refund(uint amount) public {\n        assert(msg.sender == escrow || msg.sender == seller);\n        assert(amount <= balance);\n        buyer.transfer(amount);\n        balance -= amount;\n    }\n    \n    // allows the buyer to reclaim funds and destroy the contract if the seller has not yet accepted the transaction\n    function buyerRefund() public {\n        assert(msg.sender == buyer);\n        assert(!offerAccepted);\n        selfdestruct(buyer);\n    }\n\n    // removes the contract from the blockchain and returns all deposited funds to the buyers\n    // can only be executed after both parties voted but the transaction was not fulfilled\n    function kill() public {\n        assert(sellerVoted && buyerVoted);\n        if (msg.sender == escrow) {\n            selfdestruct(buyer);\n        }\n    }\n}",
  "sourcePath": "/home/vinsonly/School/CMPT470/finalproject/client/src/eth/contracts/NewEscrow.sol",
  "compiler": {
    "name": "solc",
    "version": "0.4.24+commit.e67f0147.Emscripten.clang"
  },
  "schemaVersion": "2.0.1",
  "updatedAt": "2018-08-04T23:02:56.431Z"
}