{
  "contractName": "BasicEscrow",
  "abi": [
    {
      "constant": true,
      "inputs": [],
      "name": "seller",
      "outputs": [
        {
          "name": "",
          "type": "address"
        }
      ],
      "payable": false,
      "stateMutability": "view",
      "type": "function"
    },
    {
      "constant": true,
      "inputs": [],
      "name": "buyer",
      "outputs": [
        {
          "name": "",
          "type": "address"
        }
      ],
      "payable": false,
      "stateMutability": "view",
      "type": "function"
    },
    {
      "inputs": [
        {
          "name": "buyer_address",
          "type": "address"
        },
        {
          "name": "seller_address",
          "type": "address"
        }
      ],
      "payable": false,
      "stateMutability": "nonpayable",
      "type": "constructor"
    },
    {
      "constant": true,
      "inputs": [],
      "name": "getBuyerOk",
      "outputs": [
        {
          "name": "",
          "type": "bool"
        }
      ],
      "payable": false,
      "stateMutability": "view",
      "type": "function"
    },
    {
      "constant": true,
      "inputs": [],
      "name": "getSellerOk",
      "outputs": [
        {
          "name": "",
          "type": "bool"
        }
      ],
      "payable": false,
      "stateMutability": "view",
      "type": "function"
    },
    {
      "constant": true,
      "inputs": [],
      "name": "getBalance",
      "outputs": [
        {
          "name": "",
          "type": "uint256"
        }
      ],
      "payable": false,
      "stateMutability": "view",
      "type": "function"
    },
    {
      "constant": false,
      "inputs": [],
      "name": "accept",
      "outputs": [],
      "payable": false,
      "stateMutability": "nonpayable",
      "type": "function"
    },
    {
      "constant": false,
      "inputs": [],
      "name": "deposit",
      "outputs": [],
      "payable": true,
      "stateMutability": "payable",
      "type": "function"
    },
    {
      "constant": false,
      "inputs": [],
      "name": "cancel",
      "outputs": [],
      "payable": false,
      "stateMutability": "nonpayable",
      "type": "function"
    },
    {
      "constant": true,
      "inputs": [],
      "name": "kill",
      "outputs": [],
      "payable": false,
      "stateMutability": "view",
      "type": "function"
    }
  ],
  "bytecode": "0x608060405234801561001057600080fd5b50604051604080610817833981018060405281019080805190602001909291908051906020019092919050505081600160006101000a81548173ffffffffffffffffffffffffffffffffffffffff021916908373ffffffffffffffffffffffffffffffffffffffff16021790555080600260006101000a81548173ffffffffffffffffffffffffffffffffffffffff021916908373ffffffffffffffffffffffffffffffffffffffff16021790555033600360006101000a81548173ffffffffffffffffffffffffffffffffffffffff021916908373ffffffffffffffffffffffffffffffffffffffff1602179055504260048190555050506106ff806101186000396000f300608060405260043610610099576000357c0100000000000000000000000000000000000000000000000000000000900463ffffffff16806308551a531461009e57806312065fe0146100f55780632852b71c1461012057806341c0e1b5146101375780635b1de81f1461014e5780637150d8ae1461017d5780637fbddc9e146101d4578063d0e30db014610203578063ea8a1af01461020d575b600080fd5b3480156100aa57600080fd5b506100b3610224565b604051808273ffffffffffffffffffffffffffffffffffffffff1673ffffffffffffffffffffffffffffffffffffffff16815260200191505060405180910390f35b34801561010157600080fd5b5061010a61024a565b6040518082815260200191505060405180910390f35b34801561012c57600080fd5b50610135610253565b005b34801561014357600080fd5b5061014c6103f4565b005b34801561015a57600080fd5b50610163610487565b604051808215151515815260200191505060405180910390f35b34801561018957600080fd5b5061019261049e565b604051808273ffffffffffffffffffffffffffffffffffffffff1673ffffffffffffffffffffffffffffffffffffffff16815260200191505060405180910390f35b3480156101e057600080fd5b506101e96104c4565b604051808215151515815260200191505060405180910390f35b61020b6104db565b005b34801561021957600080fd5b50610222610543565b005b600260009054906101000a900473ffffffffffffffffffffffffffffffffffffffff1681565b60008054905090565b600160009054906101000a900473ffffffffffffffffffffffffffffffffffffffff1673ffffffffffffffffffffffffffffffffffffffff163373ffffffffffffffffffffffffffffffffffffffff1614156102c9576001600560006101000a81548160ff02191690831515021790555061033c565b600260009054906101000a900473ffffffffffffffffffffffffffffffffffffffff1673ffffffffffffffffffffffffffffffffffffffff163373ffffffffffffffffffffffffffffffffffffffff16141561033b576001600560016101000a81548160ff0219169083151502179055505b5b600560009054906101000a900460ff1680156103645750600560019054906101000a900460ff165b1561037657610371610698565b6103f2565b600560009054906101000a900460ff16801561039f5750600560019054906101000a900460ff16155b80156103b1575062278d006004540142115b156103f157600160009054906101000a900473ffffffffffffffffffffffffffffffffffffffff1673ffffffffffffffffffffffffffffffffffffffff16ff5b5b565b600360009054906101000a900473ffffffffffffffffffffffffffffffffffffffff1673ffffffffffffffffffffffffffffffffffffffff163373ffffffffffffffffffffffffffffffffffffffff16141561048557600160009054906101000a900473ffffffffffffffffffffffffffffffffffffffff1673ffffffffffffffffffffffffffffffffffffffff16ff5b565b6000600560009054906101000a900460ff16905090565b600160009054906101000a900473ffffffffffffffffffffffffffffffffffffffff1681565b6000600560019054906101000a900460ff16905090565b600160009054906101000a900473ffffffffffffffffffffffffffffffffffffffff1673ffffffffffffffffffffffffffffffffffffffff163373ffffffffffffffffffffffffffffffffffffffff161415610541573460008082825401925050819055505b565b600160009054906101000a900473ffffffffffffffffffffffffffffffffffffffff1673ffffffffffffffffffffffffffffffffffffffff163373ffffffffffffffffffffffffffffffffffffffff1614156105b9576000600560006101000a81548160ff02191690831515021790555061062c565b600260009054906101000a900473ffffffffffffffffffffffffffffffffffffffff1673ffffffffffffffffffffffffffffffffffffffff163373ffffffffffffffffffffffffffffffffffffffff16141561062b576000600560016101000a81548160ff0219169083151502179055505b5b600560009054906101000a900460ff161580156106565750600560019054906101000a900460ff16155b1561069657600160009054906101000a900473ffffffffffffffffffffffffffffffffffffffff1673ffffffffffffffffffffffffffffffffffffffff16ff5b565b600260009054906101000a900473ffffffffffffffffffffffffffffffffffffffff1673ffffffffffffffffffffffffffffffffffffffff16ff00a165627a7a723058205969ce8663d4d44d93adc309035560c9032ee81c45f5b8a2a0cc1596e8996cf60029",
  "source": "pragma solidity ^ 0.4 .11;\ncontract BasicEscrow {\n    uint balance;\n    address public buyer;\n    address public seller;\n    address private escrow;\n    uint private start;\n    bool buyerOk;\n    bool sellerOk;\n\n    constructor(address buyer_address, address seller_address) public {\n        // this is the constructor function that runs ONCE upon initialization\n        buyer = buyer_address;\n        seller = seller_address;\n        escrow = msg.sender;\n        start = now; //now is an alias for block.timestamp, not really \"now\"\n    }\n\n    function getBuyerOk() public view returns (bool){\n        return buyerOk;\n    }\n\n    function getSellerOk() public view returns (bool){\n        return sellerOk;\n    }\n\n    function getBalance() public view returns (uint){\n        return balance;\n    }\n\n    function accept() public {\n        if (msg.sender == buyer) {\n            buyerOk = true;\n        } else if (msg.sender == seller) {\n            sellerOk = true;\n        }\n        if (buyerOk && sellerOk) {\n            payBalance();\n        } else if (buyerOk && !sellerOk && now > start + 30 days) {\n            // Freeze 30 days before release to buyer. The customer has to remember to call this method after freeze period.\n            selfdestruct(buyer);\n        }\n    }\n\n    function payBalance() private {\n        // we are sending ourselves (contract creator) a fee\n        // escrow.transfer(this.balance / 100);\n        // send seller the balance\n        // if (seller.send(this.balance)) {\n        //     balance = 0;\n        // } else {\n        //     throw;\n        // }\n        selfdestruct(seller);\n    }\n\n    function deposit() public payable {\n        if (msg.sender == buyer) {\n            balance += msg.value;\n        }\n    }\n\n    function cancel() public {\n        if (msg.sender == buyer) {\n            buyerOk = false;\n        } else if (msg.sender == seller) {\n            sellerOk = false;\n        }\n        // if both buyer and seller would like to cancel, money is returned to buyer \n        if (!buyerOk && !sellerOk) {\n            selfdestruct(buyer);\n        }\n    }\n\n    function kill() public constant {\n        if (msg.sender == escrow) {\n            selfdestruct(buyer);\n        }\n    }\n}",
  "sourcePath": "/home/vinsonly/School/CMPT470/finalproject/client/src/eth/contracts/BasicEscrow.sol",
  "compiler": {
    "name": "solc",
    "version": "0.4.24+commit.e67f0147.Emscripten.clang"
  },
  "schemaVersion": "2.0.1",
  "updatedAt": "2018-08-02T13:43:52.717Z"
}